{
  "contractName": "GiftCoupon",
  "abi": [
    {
      "constant": true,
      "inputs": [],
      "name": "RedeemableCost",
      "outputs": [
        {
          "name": "",
          "type": "uint256"
        }
      ],
      "payable": false,
      "stateMutability": "view",
      "type": "function"
    },
    {
      "inputs": [
        {
          "name": "_icoToken",
          "type": "address"
        }
      ],
      "payable": false,
      "stateMutability": "nonpayable",
      "type": "constructor"
    },
    {
      "anonymous": false,
      "inputs": [
        {
          "indexed": false,
          "name": "_cost",
          "type": "uint256"
        },
        {
          "indexed": false,
          "name": "_validity",
          "type": "uint256"
        },
        {
          "indexed": false,
          "name": "_creator",
          "type": "address"
        },
        {
          "indexed": false,
          "name": "_title",
          "type": "string"
        },
        {
          "indexed": false,
          "name": "_noOfCoupon",
          "type": "uint256"
        }
      ],
      "name": "couponGift",
      "type": "event"
    },
    {
      "anonymous": false,
      "inputs": [
        {
          "indexed": false,
          "name": "user",
          "type": "address"
        },
        {
          "indexed": false,
          "name": "couponCode",
          "type": "uint256"
        }
      ],
      "name": "couponRedeemed",
      "type": "event"
    },
    {
      "constant": false,
      "inputs": [
        {
          "name": "_cost",
          "type": "uint256"
        },
        {
          "name": "_validity",
          "type": "uint256"
        },
        {
          "name": "_title",
          "type": "string"
        },
        {
          "name": "_noOfCoupon",
          "type": "uint256"
        }
      ],
      "name": "createGiftCoupon",
      "outputs": [],
      "payable": false,
      "stateMutability": "nonpayable",
      "type": "function"
    },
    {
      "constant": true,
      "inputs": [
        {
          "name": "_couponCode",
          "type": "uint32"
        }
      ],
      "name": "getGiftCouponDetails",
      "outputs": [
        {
          "name": "title",
          "type": "string"
        },
        {
          "name": "cost",
          "type": "uint256"
        },
        {
          "name": "validity",
          "type": "uint256"
        },
        {
          "name": "code",
          "type": "uint256"
        },
        {
          "name": "creator",
          "type": "address"
        },
        {
          "name": "redeemedBy",
          "type": "address"
        }
      ],
      "payable": false,
      "stateMutability": "view",
      "type": "function"
    },
    {
      "constant": true,
      "inputs": [],
      "name": "getGiftCouponCodes",
      "outputs": [
        {
          "name": "",
          "type": "uint256[]"
        }
      ],
      "payable": false,
      "stateMutability": "view",
      "type": "function"
    },
    {
      "constant": false,
      "inputs": [
        {
          "name": "_couponCode",
          "type": "uint32"
        }
      ],
      "name": "redeemCoupon",
      "outputs": [
        {
          "name": "",
          "type": "bool"
        }
      ],
      "payable": false,
      "stateMutability": "nonpayable",
      "type": "function"
    }
  ],
  "bytecode": "0x608060405234801561001057600080fd5b5060405160208061102c833981018060405281019080805190602001909291905050506000816000806101000a81548173ffffffffffffffffffffffffffffffffffffffff021916908373ffffffffffffffffffffffffffffffffffffffff16021790555033600260006101000a81548173ffffffffffffffffffffffffffffffffffffffff021916908373ffffffffffffffffffffffffffffffffffffffff1602179055506000809054906101000a900473ffffffffffffffffffffffffffffffffffffffff1673ffffffffffffffffffffffffffffffffffffffff1663313ce5676040518163ffffffff167c0100000000000000000000000000000000000000000000000000000000028152600401602060405180830381600087803b15801561013b57600080fd5b505af115801561014f573d6000803e3d6000fd5b505050506040513d602081101561016557600080fd5b8101908080519060200190929190505050905080600a0a6004819055505050610e99806101936000396000f30060806040526004361061006d576000357c0100000000000000000000000000000000000000000000000000000000900463ffffffff16806304275adb14610072578063367e3e4b146100bd57806384c52649146100e8578063d95991741461020f578063d965edae1461027b575b600080fd5b34801561007e57600080fd5b506100a3600480360381019080803563ffffffff169060200190929190505050610302565b604051808215151515815260200191505060405180910390f35b3480156100c957600080fd5b506100d26105be565b6040518082815260200191505060405180910390f35b3480156100f457600080fd5b50610119600480360381019080803563ffffffff1690602001909291905050506105c4565b60405180806020018781526020018681526020018581526020018473ffffffffffffffffffffffffffffffffffffffff1673ffffffffffffffffffffffffffffffffffffffff1681526020018373ffffffffffffffffffffffffffffffffffffffff1673ffffffffffffffffffffffffffffffffffffffff168152602001828103825288818151815260200191508051906020019080838360005b838110156101cf5780820151818401526020810190506101b4565b50505050905090810190601f1680156101fc5780820380516001836020036101000a031916815260200191505b5097505050505050505060405180910390f35b34801561021b57600080fd5b50610224610710565b6040518080602001828103825283818151815260200191508051906020019060200280838360005b8381101561026757808201518184015260208101905061024c565b505050509050019250505060405180910390f35b34801561028757600080fd5b506103006004803603810190808035906020019092919080359060200190929190803590602001908201803590602001908080601f0160208091040260200160405190810160405280939291908181526020018383808284378201915050505050509192919290803590602001909291905050506107a5565b005b600080600660008463ffffffff1663ffffffff16815260200190815260200160002090508060000154600581905550600081600001541415151561034557600080fd5b600073ffffffffffffffffffffffffffffffffffffffff168160040160009054906101000a900473ffffffffffffffffffffffffffffffffffffffff1673ffffffffffffffffffffffffffffffffffffffff161415156103a457600080fd5b6000809054906101000a900473ffffffffffffffffffffffffffffffffffffffff1673ffffffffffffffffffffffffffffffffffffffff166323b872dd8260020160009054906101000a900473ffffffffffffffffffffffffffffffffffffffff163384600001546040518463ffffffff167c0100000000000000000000000000000000000000000000000000000000028152600401808473ffffffffffffffffffffffffffffffffffffffff1673ffffffffffffffffffffffffffffffffffffffff1681526020018373ffffffffffffffffffffffffffffffffffffffff1673ffffffffffffffffffffffffffffffffffffffff1681526020018281526020019350505050602060405180830381600087803b1580156104c457600080fd5b505af11580156104d8573d6000803e3d6000fd5b505050506040513d60208110156104ee57600080fd5b810190808051906020019092919050505050338160040160006101000a81548173ffffffffffffffffffffffffffffffffffffffff021916908373ffffffffffffffffffffffffffffffffffffffff1602179055507f18ec573e5c5766bd9b8548127cf844084da935c117e15b3120757c61d3ce32d63384604051808373ffffffffffffffffffffffffffffffffffffffff1673ffffffffffffffffffffffffffffffffffffffff1681526020018263ffffffff1681526020019250505060405180910390a16001915050919050565b60055481565b6060600080600080600080600660008963ffffffff1663ffffffff1681526020019081526020016000209050806003018054600181600116156101000203166002900480601f0160208091040260200160405190810160405280929190818152602001828054600181600116156101000203166002900480156106885780601f1061065d57610100808354040283529160200191610688565b820191906000526020600020905b81548152906001019060200180831161066b57829003601f168201915b5050505050965080600001549550806001015494508763ffffffff1693508060020160009054906101000a900473ffffffffffffffffffffffffffffffffffffffff1692508060040160009054906101000a900473ffffffffffffffffffffffffffffffffffffffff1691508686868686869650965096509650965096505091939550919395565b6060600760003373ffffffffffffffffffffffffffffffffffffffff1673ffffffffffffffffffffffffffffffffffffffff16815260200190815260200160002080548060200260200160405190810160405280929190818152602001828054801561079b57602002820191906000526020600020905b815481526020019060010190808311610787575b5050505050905090565b6000806107b0610d1a565b6000806107c6868a610ce290919063ffffffff16565b94506107dd85600454610ce290919063ffffffff16565b93506000809054906101000a900473ffffffffffffffffffffffffffffffffffffffff1673ffffffffffffffffffffffffffffffffffffffff1663dd62ed3e33306040518363ffffffff167c0100000000000000000000000000000000000000000000000000000000028152600401808373ffffffffffffffffffffffffffffffffffffffff1673ffffffffffffffffffffffffffffffffffffffff1681526020018273ffffffffffffffffffffffffffffffffffffffff1673ffffffffffffffffffffffffffffffffffffffff16815260200192505050602060405180830381600087803b1580156108cf57600080fd5b505af11580156108e3573d6000803e3d6000fd5b505050506040513d60208110156108f957600080fd5b81019080805190602001909291905050506003819055506003548410151561092057600080fd5b600091505b85821015610b9f5733836040019073ffffffffffffffffffffffffffffffffffffffff16908173ffffffffffffffffffffffffffffffffffffffff16815250508683606001819052506109836004548a610ce290919063ffffffff16565b836000018181525050878360200181815250506000836080019073ffffffffffffffffffffffffffffffffffffffff16908173ffffffffffffffffffffffffffffffffffffffff1681525050637735940042444285604051602001808581526020018481526020018381526020018281526020019450505050506040516020818303038152906040526040518082805190602001908083835b602083101515610a415780518252602082019150602081019050602083039250610a1c565b6001836020036101000a038019825116818451168082178552505050505050905001915050604051809103902060019004811515610a7b57fe5b0690506008819080600181540180825580915050906001820390600052602060002001600090919263ffffffff169091909150555082600660008363ffffffff1663ffffffff168152602001908152602001600020600082015181600001556020820151816001015560408201518160020160006101000a81548173ffffffffffffffffffffffffffffffffffffffff021916908373ffffffffffffffffffffffffffffffffffffffff1602179055506060820151816003019080519060200190610b47929190610d76565b5060808201518160040160006101000a81548173ffffffffffffffffffffffffffffffffffffffff021916908373ffffffffffffffffffffffffffffffffffffffff1602179055509050508180600101925050610925565b6008600760003373ffffffffffffffffffffffffffffffffffffffff1673ffffffffffffffffffffffffffffffffffffffff168152602001908152602001600020908054610bee929190610df6565b507f83a361b432d6845b2c116aba2e3b9718259129563efd4ae3bc712c61bc804f268989338a8a604051808681526020018581526020018473ffffffffffffffffffffffffffffffffffffffff1673ffffffffffffffffffffffffffffffffffffffff16815260200180602001838152602001828103825284818151815260200191508051906020019080838360005b83811015610c99578082015181840152602081019050610c7e565b50505050905090810190601f168015610cc65780820380516001836020036101000a031916815260200191505b50965050505050505060405180910390a1505050505050505050565b600080831415610cf55760009050610d14565b8183029050818382811515610d0657fe5b04141515610d1057fe5b8090505b92915050565b60a0604051908101604052806000815260200160008152602001600073ffffffffffffffffffffffffffffffffffffffff16815260200160608152602001600073ffffffffffffffffffffffffffffffffffffffff1681525090565b828054600181600116156101000203166002900490600052602060002090601f016020900481019282601f10610db757805160ff1916838001178555610de5565b82800160010185558215610de5579182015b82811115610de4578251825591602001919060010190610dc9565b5b509050610df29190610e48565b5090565b828054828255906000526020600020908101928215610e375760005260206000209182015b82811115610e36578254825591600101919060010190610e1b565b5b509050610e449190610e48565b5090565b610e6a91905b80821115610e66576000816000905550600101610e4e565b5090565b905600a165627a7a72305820468f77f9e6750b21bcab5ba76c33205b802fc9f179221860c4743dfa34944deb0029",
  "source": "pragma solidity ^0.4.23;\n\nimport \"./SafeMath.sol\";\nimport \"./IcoToken.sol\";\nimport \"./IcoContract.sol\";\n\ncontract GiftCoupon {\n\n\tusing SafeMath for uint256;\n\tIcoToken icoTokenObj ;\n\tIcoContract icoContractObj ;\n\n\taddress owner;\n\tuint256 allowanceCost;\n\tuint256 decimalFactor;\n\t\n\tuint256 public RedeemableCost;\n\n\tstruct Coupon\n\t{\t\t\n\t\tuint256 rewardCost;\t\t\n\t\tuint256 validity;\t\t\t\t\t\n\t\taddress creator;\n\t\tstring couponTitle;\n\t\taddress redeemedBy;\n\t}\n\t\n\tconstructor(address _icoToken) public \n\t{\n\t    icoTokenObj = IcoToken(_icoToken);\n\t    owner = msg.sender;\n\t    \n\t    /* decimal factor */\n\t    uint256 decimals = icoTokenObj.decimals();\n\t    decimalFactor = 10 ** decimals;\n\t}\n\t\n\tmodifier onlyAdmin()\n\t{\n\t    require(owner == msg.sender) ;\n\t    _;\n\t}\n\t\n\tfunction setIcoTokenInstance(address _icoToken) private onlyAdmin \n\t{\n\t    icoTokenObj = IcoToken(_icoToken);\n\t}\n\n\tmapping(uint32 => Coupon) CouponCode; \n\n    mapping( address => uint[]) UserCouponList;\t\n    uint[] codeList;\n\n\tevent couponGift(uint256 _cost,  uint256 _validity, address _creator, string _title , uint256 _noOfCoupon);\n    event couponRedeemed(address user, uint256 couponCode);\n  \n    // can createGiftCoupon only if have tokens creators account\n    function createGiftCoupon(uint256 _cost,  uint256 _validity, string _title , uint256 _noOfCoupon) public \n    {\n      \n\t\t/*  Get exchange rate from IcoContract and convert new token cost into decimal */\n\t\n\t\tuint256 newTokenCost = _cost.mul(_noOfCoupon);\n\t\t\n\t\t/* multiply new token cost with exchange rate to get decimal cost*/\n        uint tokenCostInDecimal = decimalFactor.mul(newTokenCost);\n        \n\t\t/* get allowance cost of constract*/\n\t\tallowanceCost = icoTokenObj.allowance(msg.sender,address(this));\n        \n\t\t/*  Check if Total Coupon Token Value in decimalis Lesser than allowance cost of contract  */\n        require(tokenCostInDecimal < allowanceCost); \n    \n        \n        Coupon memory couponObj;\n        /*  Iterate _noOfCoupon times  */\n        for(uint i = 0 ; i < _noOfCoupon ; i++)\n        {\n            \tcouponObj.creator = msg.sender;\n        \t\tcouponObj.couponTitle = _title;\n        \t\tcouponObj.rewardCost = _cost.mul(decimalFactor);\n        \t\tcouponObj.validity = _validity;\n        \t\tcouponObj.redeemedBy = address(0); // store address 0x000 initially before redeem \n        \t\t/* Generate Random String Coupon code */\n        \t\tuint32 code = uint32(uint256(keccak256(abi.encodePacked(block.timestamp, block.difficulty,now,i)))%2000000000);\n        \t\tcodeList.push(code);\n        \t\tCouponCode[code] = couponObj;  \n        }\n        \n        /* Map codelist on creators address */\n        UserCouponList[msg.sender] = codeList;\n        \n\t\t/* Trigger Event  */\n\t\temit couponGift(_cost, _validity, msg.sender, _title, _noOfCoupon);\n\t}\n\t\n    function getGiftCouponDetails(uint32 _couponCode) public view returns( string title,uint256 cost,  uint256 validity, uint256 code, address creator, address redeemedBy)\n    {\n        Coupon storage getStructValue = CouponCode[_couponCode];\n        \n        title = getStructValue.couponTitle;\n        cost = getStructValue.rewardCost;\n        validity = getStructValue.validity;\n        code = _couponCode;\n        creator = getStructValue.creator;\n        redeemedBy = getStructValue.redeemedBy;\n        \n        return (title, cost, validity, code, creator, redeemedBy);\n    }\n\t\n\tfunction getGiftCouponCodes() public view returns ( uint[]){\n\t       return UserCouponList[msg.sender];\n\t}\n\n\tfunction redeemCoupon(uint32 _couponCode) public returns(bool)\n\t{\n\t\tCoupon storage reward = CouponCode[_couponCode];\n\t\tRedeemableCost = reward.rewardCost;\n\t\t/*  Check if rewardCost is not 0 */\n        require(reward.rewardCost != 0);\n        require(reward.redeemedBy == address(0));\n        \n        /* Transfer Reward Cost Token to msg.sender from Coupon Creator Account via TokenContract using transferFrom method */\n        icoTokenObj.transferFrom(reward.creator, msg.sender, reward.rewardCost);\n       \n       \t/* Update Coupon redeemedBy address */\n\t\treward.redeemedBy = msg.sender;\n\n\t\t/* Trigger Event */\n\t\temit couponRedeemed(msg.sender , _couponCode);\n\t\t\n\t\treturn true;\n\t}\n}",
  "sourcePath": "/var/www/html/giftcoupon-ethereum/contracts/GiftCoupon.sol",
  "compiler": {
    "name": "solc",
    "version": "0.4.24+commit.e67f0147.Emscripten.clang"
  },
  "schemaVersion": "2.0.1",
  "updatedAt": "2018-09-12T04:52:08.890Z"
}