{
  "contractName": "IcoContract",
  "abi": [
    {
      "constant": true,
      "inputs": [],
      "name": "totalSupply",
      "outputs": [
        {
          "name": "",
          "type": "uint256"
        }
      ],
      "payable": false,
      "stateMutability": "view",
      "type": "function"
    },
    {
      "constant": true,
      "inputs": [],
      "name": "fundingStartTime",
      "outputs": [
        {
          "name": "",
          "type": "uint256"
        }
      ],
      "payable": false,
      "stateMutability": "view",
      "type": "function"
    },
    {
      "constant": false,
      "inputs": [],
      "name": "unpause",
      "outputs": [],
      "payable": false,
      "stateMutability": "nonpayable",
      "type": "function"
    },
    {
      "constant": true,
      "inputs": [],
      "name": "tokenExchangeRate",
      "outputs": [
        {
          "name": "",
          "type": "uint256"
        }
      ],
      "payable": false,
      "stateMutability": "view",
      "type": "function"
    },
    {
      "constant": true,
      "inputs": [],
      "name": "paused",
      "outputs": [
        {
          "name": "",
          "type": "bool"
        }
      ],
      "payable": false,
      "stateMutability": "view",
      "type": "function"
    },
    {
      "constant": true,
      "inputs": [],
      "name": "ico",
      "outputs": [
        {
          "name": "",
          "type": "address"
        }
      ],
      "payable": false,
      "stateMutability": "view",
      "type": "function"
    },
    {
      "constant": true,
      "inputs": [],
      "name": "tokenCreationCap",
      "outputs": [
        {
          "name": "",
          "type": "uint256"
        }
      ],
      "payable": false,
      "stateMutability": "view",
      "type": "function"
    },
    {
      "constant": false,
      "inputs": [],
      "name": "renounceOwnership",
      "outputs": [],
      "payable": false,
      "stateMutability": "nonpayable",
      "type": "function"
    },
    {
      "constant": true,
      "inputs": [],
      "name": "fundingEndTime",
      "outputs": [
        {
          "name": "",
          "type": "uint256"
        }
      ],
      "payable": false,
      "stateMutability": "view",
      "type": "function"
    },
    {
      "constant": true,
      "inputs": [],
      "name": "icoAddress",
      "outputs": [
        {
          "name": "",
          "type": "address"
        }
      ],
      "payable": false,
      "stateMutability": "view",
      "type": "function"
    },
    {
      "constant": false,
      "inputs": [],
      "name": "pause",
      "outputs": [],
      "payable": false,
      "stateMutability": "nonpayable",
      "type": "function"
    },
    {
      "constant": true,
      "inputs": [],
      "name": "isFinalized",
      "outputs": [
        {
          "name": "",
          "type": "bool"
        }
      ],
      "payable": false,
      "stateMutability": "view",
      "type": "function"
    },
    {
      "constant": true,
      "inputs": [],
      "name": "owner",
      "outputs": [
        {
          "name": "",
          "type": "address"
        }
      ],
      "payable": false,
      "stateMutability": "view",
      "type": "function"
    },
    {
      "constant": true,
      "inputs": [],
      "name": "ethFundDeposit",
      "outputs": [
        {
          "name": "",
          "type": "address"
        }
      ],
      "payable": false,
      "stateMutability": "view",
      "type": "function"
    },
    {
      "constant": true,
      "inputs": [],
      "name": "minContribution",
      "outputs": [
        {
          "name": "",
          "type": "uint256"
        }
      ],
      "payable": false,
      "stateMutability": "view",
      "type": "function"
    },
    {
      "constant": false,
      "inputs": [
        {
          "name": "newOwner",
          "type": "address"
        }
      ],
      "name": "transferOwnership",
      "outputs": [],
      "payable": false,
      "stateMutability": "nonpayable",
      "type": "function"
    },
    {
      "inputs": [
        {
          "name": "_ethFundDeposit",
          "type": "address"
        },
        {
          "name": "_icoAddress",
          "type": "address"
        },
        {
          "name": "_tokenCreationCap",
          "type": "uint256"
        },
        {
          "name": "_tokenExchangeRate",
          "type": "uint256"
        },
        {
          "name": "_fundingStartTime",
          "type": "uint256"
        },
        {
          "name": "_fundingEndTime",
          "type": "uint256"
        },
        {
          "name": "_minContribution",
          "type": "uint256"
        }
      ],
      "payable": false,
      "stateMutability": "nonpayable",
      "type": "constructor"
    },
    {
      "payable": true,
      "stateMutability": "payable",
      "type": "fallback"
    },
    {
      "anonymous": false,
      "inputs": [
        {
          "indexed": false,
          "name": "from",
          "type": "address"
        },
        {
          "indexed": false,
          "name": "to",
          "type": "address"
        },
        {
          "indexed": false,
          "name": "val",
          "type": "uint256"
        }
      ],
      "name": "LogCreateICO",
      "type": "event"
    },
    {
      "anonymous": false,
      "inputs": [],
      "name": "Pause",
      "type": "event"
    },
    {
      "anonymous": false,
      "inputs": [],
      "name": "Unpause",
      "type": "event"
    },
    {
      "anonymous": false,
      "inputs": [
        {
          "indexed": true,
          "name": "previousOwner",
          "type": "address"
        }
      ],
      "name": "OwnershipRenounced",
      "type": "event"
    },
    {
      "anonymous": false,
      "inputs": [
        {
          "indexed": true,
          "name": "previousOwner",
          "type": "address"
        },
        {
          "indexed": true,
          "name": "newOwner",
          "type": "address"
        }
      ],
      "name": "OwnershipTransferred",
      "type": "event"
    },
    {
      "constant": false,
      "inputs": [],
      "name": "finalize",
      "outputs": [],
      "payable": false,
      "stateMutability": "nonpayable",
      "type": "function"
    }
  ],
  "bytecode": "0x608060405260008060146101000a81548160ff02191690831515021790555034801561002a57600080fd5b5060405160e0806110db83398101806040528101908080519060200190929190805190602001909291908051906020019092919080519060200190929190805190602001909291908051906020019092919080519060200190929190505050336000806101000a81548173ffffffffffffffffffffffffffffffffffffffff021916908373ffffffffffffffffffffffffffffffffffffffff16021790555086600860006101000a81548173ffffffffffffffffffffffffffffffffffffffff021916908373ffffffffffffffffffffffffffffffffffffffff16021790555085600960006101000a81548173ffffffffffffffffffffffffffffffffffffffff021916908373ffffffffffffffffffffffffffffffffffffffff1602179055508460028190555083600781905550826004819055508060068190555081600581905550600960009054906101000a900473ffffffffffffffffffffffffffffffffffffffff16600160006101000a81548173ffffffffffffffffffffffffffffffffffffffff021916908373ffffffffffffffffffffffffffffffffffffffff1602179055506000600960146101000a81548160ff02191690831515021790555050505050505050610ed9806102026000396000f3006080604052600436106100f1576000357c0100000000000000000000000000000000000000000000000000000000900463ffffffff16806318160ddd146100fd5780631df93558146101285780633f4ba83a146101535780634172d0801461016a5780634bb278f3146101955780635c975abb146101ac5780635d452201146101db5780636f7920fd14610232578063715018a61461025d57806374eedd4614610274578063788ce6f21461029f5780638456cb59146102f65780638d4e40831461030d5780638da5cb5b1461033c578063a81c3bdf14610393578063aaffadf3146103ea578063f2fde38b14610415575b6100fb3334610458565b005b34801561010957600080fd5b506101126106e2565b6040518082815260200191505060405180910390f35b34801561013457600080fd5b5061013d6106e8565b6040518082815260200191505060405180910390f35b34801561015f57600080fd5b506101686106ee565b005b34801561017657600080fd5b5061017f6107ac565b6040518082815260200191505060405180910390f35b3480156101a157600080fd5b506101aa6107b2565b005b3480156101b857600080fd5b506101c16108c6565b604051808215151515815260200191505060405180910390f35b3480156101e757600080fd5b506101f06108d9565b604051808273ffffffffffffffffffffffffffffffffffffffff1673ffffffffffffffffffffffffffffffffffffffff16815260200191505060405180910390f35b34801561023e57600080fd5b506102476108ff565b6040518082815260200191505060405180910390f35b34801561026957600080fd5b50610272610905565b005b34801561028057600080fd5b50610289610a07565b6040518082815260200191505060405180910390f35b3480156102ab57600080fd5b506102b4610a0d565b604051808273ffffffffffffffffffffffffffffffffffffffff1673ffffffffffffffffffffffffffffffffffffffff16815260200191505060405180910390f35b34801561030257600080fd5b5061030b610a33565b005b34801561031957600080fd5b50610322610af3565b604051808215151515815260200191505060405180910390f35b34801561034857600080fd5b50610351610b06565b604051808273ffffffffffffffffffffffffffffffffffffffff1673ffffffffffffffffffffffffffffffffffffffff16815260200191505060405180910390f35b34801561039f57600080fd5b506103a8610b2b565b604051808273ffffffffffffffffffffffffffffffffffffffff1673ffffffffffffffffffffffffffffffffffffffff16815260200191505060405180910390f35b3480156103f657600080fd5b506103ff610b51565b6040518082815260200191505060405180910390f35b34801561042157600080fd5b50610456600480360381019080803573ffffffffffffffffffffffffffffffffffffffff169060200190929190505050610b57565b005b60008060008060008060149054906101000a900460ff1615151561047b57600080fd5b60035460025411151561048d57600080fd5b600454421015151561049e57600080fd5b60055442111515156104af57600080fd5b60065486101515156104c057600080fd5b600960149054906101000a900460ff161515156104dc57600080fd5b6104f160075487610cac90919063ffffffff16565b945061050885600354610ce490919063ffffffff16565b935083600254101561063c5761052b600354600254610d0090919063ffffffff16565b92506105408386610d0090919063ffffffff16565b91506007548281151561054f57fe5b0490506002546003819055506105658784610d19565b151561057057600080fd5b3373ffffffffffffffffffffffffffffffffffffffff166108fc829081150290604051600060405180830381858888f193505050501580156105b6573d6000803e3d6000fd5b50600860009054906101000a900473ffffffffffffffffffffffffffffffffffffffff1673ffffffffffffffffffffffffffffffffffffffff166108fc3073ffffffffffffffffffffffffffffffffffffffff16319081150290604051600060405180830381858888f19350505050158015610636573d6000803e3d6000fd5b506106d9565b8360038190555061064d8786610d19565b151561065857600080fd5b600860009054906101000a900473ffffffffffffffffffffffffffffffffffffffff1673ffffffffffffffffffffffffffffffffffffffff166108fc3073ffffffffffffffffffffffffffffffffffffffff16319081150290604051600060405180830381858888f193505050501580156106d7573d6000803e3d6000fd5b505b50505050505050565b60035481565b60045481565b6000809054906101000a900473ffffffffffffffffffffffffffffffffffffffff1673ffffffffffffffffffffffffffffffffffffffff163373ffffffffffffffffffffffffffffffffffffffff1614151561074957600080fd5b600060149054906101000a900460ff16151561076457600080fd5b60008060146101000a81548160ff0219169083151502179055507f7805862f689e2f13df9f062ff482ad3ad112aca9e0847911ed832e158c525b3360405160405180910390a1565b60075481565b6000809054906101000a900473ffffffffffffffffffffffffffffffffffffffff1673ffffffffffffffffffffffffffffffffffffffff163373ffffffffffffffffffffffffffffffffffffffff1614151561080d57600080fd5b600960149054906101000a900460ff1615151561082957600080fd5b6001600960146101000a81548160ff021916908315150217905550600860009054906101000a900473ffffffffffffffffffffffffffffffffffffffff1673ffffffffffffffffffffffffffffffffffffffff166108fc3073ffffffffffffffffffffffffffffffffffffffff16319081150290604051600060405180830381858888f193505050501580156108c3573d6000803e3d6000fd5b50565b600060149054906101000a900460ff1681565b600160009054906101000a900473ffffffffffffffffffffffffffffffffffffffff1681565b60025481565b6000809054906101000a900473ffffffffffffffffffffffffffffffffffffffff1673ffffffffffffffffffffffffffffffffffffffff163373ffffffffffffffffffffffffffffffffffffffff1614151561096057600080fd5b6000809054906101000a900473ffffffffffffffffffffffffffffffffffffffff1673ffffffffffffffffffffffffffffffffffffffff167ff8df31144d9c2f0f6b59d69b8b98abd5459d07f2742c4df920b25aae33c6482060405160405180910390a260008060006101000a81548173ffffffffffffffffffffffffffffffffffffffff021916908373ffffffffffffffffffffffffffffffffffffffff160217905550565b60055481565b600960009054906101000a900473ffffffffffffffffffffffffffffffffffffffff1681565b6000809054906101000a900473ffffffffffffffffffffffffffffffffffffffff1673ffffffffffffffffffffffffffffffffffffffff163373ffffffffffffffffffffffffffffffffffffffff16141515610a8e57600080fd5b600060149054906101000a900460ff16151515610aaa57600080fd5b6001600060146101000a81548160ff0219169083151502179055507f6985a02210a168e66602d3235cb6db0e70f92b3ba4d376a33c0f3d9434bff62560405160405180910390a1565b600960149054906101000a900460ff1681565b6000809054906101000a900473ffffffffffffffffffffffffffffffffffffffff1681565b600860009054906101000a900473ffffffffffffffffffffffffffffffffffffffff1681565b60065481565b6000809054906101000a900473ffffffffffffffffffffffffffffffffffffffff1673ffffffffffffffffffffffffffffffffffffffff163373ffffffffffffffffffffffffffffffffffffffff16141515610bb257600080fd5b600073ffffffffffffffffffffffffffffffffffffffff168173ffffffffffffffffffffffffffffffffffffffff1614151515610bee57600080fd5b8073ffffffffffffffffffffffffffffffffffffffff166000809054906101000a900473ffffffffffffffffffffffffffffffffffffffff1673ffffffffffffffffffffffffffffffffffffffff167f8be0079c531659141344cd1fd0a4f28419497f9722a3daafe3b4186f6b6457e060405160405180910390a3806000806101000a81548173ffffffffffffffffffffffffffffffffffffffff021916908373ffffffffffffffffffffffffffffffffffffffff16021790555050565b600080831415610cbf5760009050610cde565b8183029050818382811515610cd057fe5b04141515610cda57fe5b8090505b92915050565b60008183019050828110151515610cf757fe5b80905092915050565b6000828211151515610d0e57fe5b818303905092915050565b60007f6ffa1d489045d96c2691a9c911b5cd15308401f6c62def7cf8f32653d8d70b2460008484604051808473ffffffffffffffffffffffffffffffffffffffff1681526020018373ffffffffffffffffffffffffffffffffffffffff1673ffffffffffffffffffffffffffffffffffffffff168152602001828152602001935050505060405180910390a1600160009054906101000a900473ffffffffffffffffffffffffffffffffffffffff1673ffffffffffffffffffffffffffffffffffffffff16636c197ff584846040518363ffffffff167c0100000000000000000000000000000000000000000000000000000000028152600401808373ffffffffffffffffffffffffffffffffffffffff1673ffffffffffffffffffffffffffffffffffffffff16815260200182815260200192505050602060405180830381600087803b158015610e6a57600080fd5b505af1158015610e7e573d6000803e3d6000fd5b505050506040513d6020811015610e9457600080fd5b81019080805190602001909291905050509050929150505600a165627a7a7230582042725eb1b1091c28181dbf2189e39ed911c38cb44139c13bce1bc539bde05ce90029",
  "source": "pragma solidity ^0.4.23;\n\nimport \"./SafeMath.sol\";\nimport \"./Pausable.sol\";\nimport \"./IcoToken.sol\";\n\ncontract IcoContract is Pausable{\n    /*define SafeMath library for uint256*/\n    using SafeMath for uint256;\n    IcoToken public ico ;\n    uint256 public tokenCreationCap;\n    uint256 public totalSupply;\n    uint256 public fundingStartTime;\n    uint256 public fundingEndTime;\n    uint256 public minContribution;\n    uint256 public tokenExchangeRate;\n    \n    address public ethFundDeposit;\n    address public icoAddress;\n    \n    bool public isFinalized;\n    \n    event LogCreateICO(address from, address to, uint256 val);\n    \n    function CreateIco(address to, uint256 val) internal returns (bool success) {\n        emit LogCreateICO(0x0,to,val);\n        return ico.sell(to,val);/*call to IcoToken sell() method*/\n    }\n    \n    constructor(address _ethFundDeposit,\n                address _icoAddress,\n                uint256 _tokenCreationCap,\n                uint256 _tokenExchangeRate,\n                uint256 _fundingStartTime,\n                uint256 _fundingEndTime,\n                uint256 _minContribution) public {\n        ethFundDeposit = _ethFundDeposit;\n        icoAddress = _icoAddress;\n        tokenCreationCap = _tokenCreationCap;\n        tokenExchangeRate = _tokenExchangeRate;\n        fundingStartTime = _fundingStartTime;\n        minContribution = _minContribution;\n        fundingEndTime = _fundingEndTime;\n        ico = IcoToken(icoAddress);\n        isFinalized = false;\n    }\n    \n    /*call fallback method*/\n    function () public payable{\n        createTokens(msg.sender,msg.value);\n    }\n    \n    function createTokens(address _beneficiary,uint256 _value) internal whenNotPaused {\n        require(tokenCreationCap > totalSupply);\n        require(now >= fundingStartTime);\n        require(now <= fundingEndTime);\n        require(_value >= minContribution);\n        require(!isFinalized);\n        \n        uint256 tokens = _value.mul(tokenExchangeRate);\n        uint256 checkSupply = totalSupply.add(tokens);\n        \n        if(tokenCreationCap < checkSupply){\n            uint256 tokenToAllocate = tokenCreationCap.sub(totalSupply);\n            uint256 tokenToRefund = tokens.sub(tokenToAllocate);\n            uint256 etherToRefund = tokenToRefund / tokenExchangeRate;\n            totalSupply = tokenCreationCap;\n            \n            require(CreateIco(_beneficiary,tokenToAllocate));\n            msg.sender.transfer(etherToRefund);\n            ethFundDeposit.transfer(address(this).balance);\n            return;\n        }\n        \n        totalSupply = checkSupply;\n        require(CreateIco(_beneficiary,tokens));\n        ethFundDeposit.transfer(address(this).balance);\n    }\n    \n    function finalize() external onlyOwner{\n        require(!isFinalized);\n        isFinalized = true;\n        ethFundDeposit.transfer(address(this).balance);\n    }\n}",
  "sourcePath": "/var/www/html/giftcoupon-ethereum/contracts/IcoContract.sol",
  "compiler": {
    "name": "solc",
    "version": "0.4.24+commit.e67f0147.Emscripten.clang"
  },
  "schemaVersion": "2.0.1",
  "updatedAt": "2018-09-12T04:52:08.887Z"
}